{
  "contractName": "Auction",
  "abi": [
    {
      "inputs": [
        {
          "internalType": "uint8",
          "name": "_startingPrice",
          "type": "uint8"
        },
        {
          "internalType": "uint8",
          "name": "_minimumStep",
          "type": "uint8"
        }
      ],
      "payable": false,
      "stateMutability": "nonpayable",
      "type": "constructor"
    },
    {
      "constant": true,
      "inputs": [],
      "name": "announcementTimes",
      "outputs": [
        {
          "internalType": "uint8",
          "name": "",
          "type": "uint8"
        }
      ],
      "payable": false,
      "stateMutability": "view",
      "type": "function"
    },
    {
      "constant": true,
      "inputs": [],
      "name": "auctioneer",
      "outputs": [
        {
          "internalType": "address",
          "name": "",
          "type": "address"
        }
      ],
      "payable": false,
      "stateMutability": "view",
      "type": "function"
    },
    {
      "constant": true,
      "inputs": [
        {
          "internalType": "address",
          "name": "",
          "type": "address"
        }
      ],
      "name": "bidders",
      "outputs": [
        {
          "internalType": "uint8",
          "name": "token",
          "type": "uint8"
        },
        {
          "internalType": "uint8",
          "name": "deposit",
          "type": "uint8"
        }
      ],
      "payable": false,
      "stateMutability": "view",
      "type": "function"
    },
    {
      "constant": true,
      "inputs": [],
      "name": "currentPrice",
      "outputs": [
        {
          "internalType": "uint8",
          "name": "",
          "type": "uint8"
        }
      ],
      "payable": false,
      "stateMutability": "view",
      "type": "function"
    },
    {
      "constant": true,
      "inputs": [],
      "name": "currentWinner",
      "outputs": [
        {
          "internalType": "address",
          "name": "",
          "type": "address"
        }
      ],
      "payable": false,
      "stateMutability": "view",
      "type": "function"
    },
    {
      "constant": true,
      "inputs": [],
      "name": "rule",
      "outputs": [
        {
          "internalType": "uint8",
          "name": "startingPrice",
          "type": "uint8"
        },
        {
          "internalType": "uint8",
          "name": "minimumStep",
          "type": "uint8"
        }
      ],
      "payable": false,
      "stateMutability": "view",
      "type": "function"
    },
    {
      "constant": true,
      "inputs": [],
      "name": "state",
      "outputs": [
        {
          "internalType": "enum Auction.State",
          "name": "",
          "type": "uint8"
        }
      ],
      "payable": false,
      "stateMutability": "view",
      "type": "function"
    },
    {
      "constant": false,
      "inputs": [
        {
          "internalType": "address",
          "name": "_account",
          "type": "address"
        },
        {
          "internalType": "uint8",
          "name": "_token",
          "type": "uint8"
        }
      ],
      "name": "register",
      "outputs": [],
      "payable": false,
      "stateMutability": "nonpayable",
      "type": "function"
    },
    {
      "constant": false,
      "inputs": [],
      "name": "startSession",
      "outputs": [],
      "payable": false,
      "stateMutability": "nonpayable",
      "type": "function"
    },
    {
      "constant": true,
      "inputs": [],
      "name": "checkTotalDeposit",
      "outputs": [
        {
          "internalType": "uint16",
          "name": "",
          "type": "uint16"
        }
      ],
      "payable": false,
      "stateMutability": "view",
      "type": "function"
    },
    {
      "constant": false,
      "inputs": [
        {
          "internalType": "uint8",
          "name": "_price",
          "type": "uint8"
        }
      ],
      "name": "bid",
      "outputs": [],
      "payable": false,
      "stateMutability": "nonpayable",
      "type": "function"
    },
    {
      "constant": false,
      "inputs": [],
      "name": "announce",
      "outputs": [],
      "payable": false,
      "stateMutability": "nonpayable",
      "type": "function"
    },
    {
      "constant": false,
      "inputs": [],
      "name": "getDeposit",
      "outputs": [],
      "payable": false,
      "stateMutability": "nonpayable",
      "type": "function"
    }
  ],
  "bytecode": "0x608060405260008060006101000a81548160ff0219169083600381111561002257fe5b021790555060008060016101000a81548160ff021916908360ff16021790555060008060026101000a81548160ff021916908360ff1602179055506000600360146101000a81548161ffff021916908361ffff16021790555034801561008757600080fd5b50604051610e00380380610e00833981810160405260408110156100aa57600080fd5b81019080805190602001909291908051906020019092919050505033600360006101000a81548173ffffffffffffffffffffffffffffffffffffffff021916908373ffffffffffffffffffffffffffffffffffffffff16021790555081600160000160006101000a81548160ff021916908360ff16021790555080600160000160016101000a81548160ff021916908360ff160217905550600160000160009054906101000a900460ff16600060026101000a81548160ff021916908360ff1602179055505050610c80806101806000396000f3fe608060405234801561001057600080fd5b50600436106100cf5760003560e01c80639d1b464a1161008c578063c399ec8811610066578063c399ec881461029b578063e4f8c1b6146102a5578063fcc8f793146102c9578063fe0ae16514610334576100cf565b80639d1b464a14610201578063aabe2fe314610225578063c19d93fb1461026f576100cf565b806307e49598146100d457806325e3d5221461012557806333500e26146101565780635ec2c7bf146101875780638f970df0146101d15780638ffaf205146101db575b600080fd5b610123600480360360408110156100ea57600080fd5b81019080803573ffffffffffffffffffffffffffffffffffffffff169060200190929190803560ff16906020019092919050505061033e565b005b61012d6104df565b604051808360ff1660ff1681526020018260ff1660ff1681526020019250505060405180910390f35b6101856004803603602081101561016c57600080fd5b81019080803560ff16906020019092919050505061050b565b005b61018f61071f565b604051808273ffffffffffffffffffffffffffffffffffffffff1673ffffffffffffffffffffffffffffffffffffffff16815260200191505060405180910390f35b6101d9610745565b005b6101e3610843565b604051808261ffff1661ffff16815260200191505060405180910390f35b61020961085b565b604051808260ff1660ff16815260200191505060405180910390f35b61022d61086e565b604051808273ffffffffffffffffffffffffffffffffffffffff1673ffffffffffffffffffffffffffffffffffffffff16815260200191505060405180910390f35b610277610894565b6040518082600381111561028757fe5b60ff16815260200191505060405180910390f35b6102a36108a6565b005b6102ad610b7b565b604051808260ff1660ff16815260200191505060405180910390f35b61030b600480360360208110156102df57600080fd5b81019080803573ffffffffffffffffffffffffffffffffffffffff169060200190929190505050610b8e565b604051808360ff1660ff1681526020018260ff1660ff1681526020019250505060405180910390f35b61033c610bcc565b005b600360009054906101000a900473ffffffffffffffffffffffffffffffffffffffff1673ffffffffffffffffffffffffffffffffffffffff163373ffffffffffffffffffffffffffffffffffffffff161461039857600080fd5b600060038111156103a557fe5b6000809054906101000a900460ff1660038111156103bf57fe5b146103c957600080fd5b600360009054906101000a900473ffffffffffffffffffffffffffffffffffffffff1673ffffffffffffffffffffffffffffffffffffffff168273ffffffffffffffffffffffffffffffffffffffff16141561042457600080fd5b80600460003373ffffffffffffffffffffffffffffffffffffffff1673ffffffffffffffffffffffffffffffffffffffff16815260200190815260200160002060000160006101000a81548160ff021916908360ff1602179055506000600460003373ffffffffffffffffffffffffffffffffffffffff1673ffffffffffffffffffffffffffffffffffffffff16815260200190815260200160002060000160016101000a81548160ff021916908360ff1602179055505050565b60018060000160009054906101000a900460ff16908060000160019054906101000a900460ff16905082565b60003390506000600460008373ffffffffffffffffffffffffffffffffffffffff1673ffffffffffffffffffffffffffffffffffffffff16815260200190815260200160002090506001600381111561056057fe5b6000809054906101000a900460ff16600381111561057a57fe5b1461058457600080fd5b600073ffffffffffffffffffffffffffffffffffffffff168273ffffffffffffffffffffffffffffffffffffffff1614806105e75750600160000160019054906101000a900460ff16600060029054906101000a900460ff160160ff168360ff16105b8061060857508260ff168160000160009054906101000a900460ff1660ff16105b1561061257600080fd5b828160000160008282829054906101000a900460ff160392506101000a81548160ff021916908360ff160217905550828160000160018282829054906101000a900460ff160192506101000a81548160ff021916908360ff1602179055508260ff16600360148282829054906101000a900461ffff160192506101000a81548161ffff021916908361ffff16021790555082600060026101000a81548160ff021916908360ff16021790555081600260006101000a81548173ffffffffffffffffffffffffffffffffffffffff021916908373ffffffffffffffffffffffffffffffffffffffff16021790555060008060016101000a81548160ff021916908360ff160217905550505050565b600360009054906101000a900473ffffffffffffffffffffffffffffffffffffffff1681565b600360009054906101000a900473ffffffffffffffffffffffffffffffffffffffff1673ffffffffffffffffffffffffffffffffffffffff163373ffffffffffffffffffffffffffffffffffffffff161461079f57600080fd5b600160038111156107ac57fe5b6000809054906101000a900460ff1660038111156107c657fe5b146107d057600080fd5b6000600181819054906101000a900460ff168092919060010191906101000a81548160ff021916908360ff160217905550506003600060019054906101000a900460ff1660ff1611156108415760026000806101000a81548160ff0219169083600381111561083b57fe5b02179055505b565b6000600360149054906101000a900461ffff16905090565b600060029054906101000a900460ff1681565b600260009054906101000a900473ffffffffffffffffffffffffffffffffffffffff1681565b6000809054906101000a900460ff1681565b600260038111156108b357fe5b6000809054906101000a900460ff1660038111156108cd57fe5b146108d757600080fd5b600260009054906101000a900473ffffffffffffffffffffffffffffffffffffffff1673ffffffffffffffffffffffffffffffffffffffff163373ffffffffffffffffffffffffffffffffffffffff1614610ac757600460003373ffffffffffffffffffffffffffffffffffffffff1673ffffffffffffffffffffffffffffffffffffffff16815260200190815260200160002060000160019054906101000a900460ff16600460003373ffffffffffffffffffffffffffffffffffffffff1673ffffffffffffffffffffffffffffffffffffffff16815260200190815260200160002060000160008282829054906101000a900460ff160192506101000a81548160ff021916908360ff160217905550600460003373ffffffffffffffffffffffffffffffffffffffff1673ffffffffffffffffffffffffffffffffffffffff16815260200190815260200160002060000160019054906101000a900460ff1660ff16600360148282829054906101000a900461ffff160392506101000a81548161ffff021916908361ffff1602179055506000600460003373ffffffffffffffffffffffffffffffffffffffff1673ffffffffffffffffffffffffffffffffffffffff16815260200190815260200160002060000160016101000a81548160ff021916908360ff1602179055505b60046000600260009054906101000a900473ffffffffffffffffffffffffffffffffffffffff1673ffffffffffffffffffffffffffffffffffffffff1673ffffffffffffffffffffffffffffffffffffffff16815260200190815260200160002060000160019054906101000a900460ff1660ff16600060029054906101000a900460ff1660ff161415610b795760036000806101000a81548160ff02191690836003811115610b7357fe5b02179055505b565b600060019054906101000a900460ff1681565b60046020528060005260406000206000915090508060000160009054906101000a900460ff16908060000160019054906101000a900460ff16905082565b600360009054906101000a900473ffffffffffffffffffffffffffffffffffffffff1673ffffffffffffffffffffffffffffffffffffffff163373ffffffffffffffffffffffffffffffffffffffff1614610c2657600080fd5b60016000806101000a81548160ff02191690836003811115610c4457fe5b021790555056fea265627a7a72315820b18473f80411c4e939b042dafd3b02ac5fcc0fda05ea28b622293515aec5d53e64736f6c63430005100032",
  "source": "pragma solidity ^0.5.16;\r\n\r\ncontract Auction {\r\n    \r\n    // Data\r\n    \r\n    // Structure to hold details of Bidder\r\n    struct IBidder {\r\n        uint8 token;\r\n        uint8 deposit;\r\n    }\r\n    \r\n    // Structure to hold details of Rule\r\n    struct IRule {\r\n        uint8 startingPrice;\r\n        uint8 minimumStep;\r\n    }\r\n    \r\n    \r\n    // State Enum to define Auction's state\r\n    enum State { CREATED, STARTED, CLOSING, CLOSED }\r\n    \r\n    State public state = State.CREATED; // State of Auction\r\n    \r\n    uint8 public announcementTimes = 0; // Number of announcements\r\n    uint8 public currentPrice = 0; // Latest price is bid.\r\n    IRule public rule; // Rule of this session\r\n    address public currentWinner; // Current Winner, who bid the highest price.\r\n    address public auctioneer;\r\n    \r\n    uint16 private totalDeposit = 0;\r\n    \r\n    mapping(address => IBidder) public bidders; // Mapping to hold bidders' information\r\n    \r\n    constructor(uint8 _startingPrice, uint8 _minimumStep) public {\r\n        \r\n        // Task #1 - Initialize the Smart contract\r\n        // + Initialize Auctioneer with address of smart contract's owner\r\n        // + Set the starting price & minimumStep\r\n        // + Set the current price as the Starting price\r\n        \r\n        \r\n        // ** Start code here. 4 lines approximately. ** /\r\n        auctioneer = msg.sender;\r\n        rule.startingPrice = _startingPrice;\r\n        rule.minimumStep = _minimumStep;\r\n        currentPrice = rule.startingPrice;\r\n\r\n        // ** End code here. ** /\r\n    }\r\n    \r\n    modifier onlyOwner() {\r\n        require(msg.sender == auctioneer);\r\n        _;\r\n    }\r\n\r\n    // Register new Bidder\r\n    function register(address _account, uint8 _token) public onlyOwner{ \r\n        \r\n                \r\n        // Task #2 - Register the bidder\r\n        // + Initialize a Bidder with address and token are given.\r\n        // + Initialize a Bidder's deposit with 0\r\n        \r\n        \r\n        // ** Start code here. 3 lines approximately. ** /\r\n        require(state == State.CREATED);\r\n        require(_account != auctioneer);\r\n        bidders[msg.sender].token = _token;\r\n        bidders[msg.sender].deposit = 0;\r\n\r\n\t   // ** End code here. **/\r\n    }\r\n\r\n    \r\n    // Start the session.\r\n    function startSession() public onlyOwner{\r\n        state = State.STARTED;\r\n    }\r\n    \r\n    //check totalDeposit\r\n    function checkTotalDeposit() public view returns(uint16) {\r\n        return totalDeposit;\r\n    }\r\n\r\n    \r\n    function bid(uint8 _price) public {\r\n        \r\n        // Task #3 - Bid by Bidders\r\n        // + Check the price with currentPirce and minimumStep. Revert if invalid.\r\n        // + Check if the Bidder has enough token to bid. Revert if invalid.\r\n        // + Move token to Deposit.\r\n        \r\n        address bidderAddr = msg.sender;\r\n        IBidder storage currentBidder = bidders[bidderAddr];\r\n        \r\n        // ** Start code here.  ** /\r\n        require(state == State.STARTED);\r\n        if(bidderAddr == address(0) || _price < (currentPrice + rule.minimumStep) || currentBidder.token < _price)\r\n        revert();\r\n        currentBidder.token -= _price;\r\n        currentBidder.deposit += _price;        \r\n\t\t// ** End code here. **/\r\n        \r\n        // Tracking deposit\r\n        totalDeposit += _price;\r\n        \r\n        // Update the price and the winner after this bid.\r\n        currentPrice = _price;\r\n        currentWinner = bidderAddr;\r\n        \r\n        // Reset the Annoucements Counter\r\n        announcementTimes = 0;\r\n    }\r\n    \r\n    function announce() public onlyOwner{\r\n        \r\n        // Task #4 - Handle announcement.\r\n        // + When Auctioneer annouce, increase the counter.\r\n        // + When Auctioneer annouced more than 3 times, switch session to Closing state.\r\n        \r\n        // ** Start code here.  ** /\r\n        require(state == State.STARTED);\r\n        announcementTimes++;\r\n        if(announcementTimes > 3) {\r\n            state = State.CLOSING;\r\n\r\n        }\r\n        // ** End code here. **/\r\n    }\r\n    \r\n    function getDeposit() public {\r\n        \r\n        // Task #5 - Handle get Deposit.\r\n        // + Allow bidders (except Winner) to withdraw their deposit \r\n\t\t// + When all bidders' deposit are withdrew, close the session \r\n        \r\n        // ** Start code here.  ** /\r\n        // HINT: Remember to decrease totalDeposit.\r\n        require(state == State.CLOSING);\r\n        if(msg.sender != currentWinner) {\r\n            bidders[msg.sender].token += bidders[msg.sender].deposit;\r\n            totalDeposit -= bidders[msg.sender].deposit;\r\n            bidders[msg.sender].deposit = 0;\r\n        }\r\n        if(currentPrice == bidders[currentWinner].deposit)\r\n\t    state = State.CLOSED;\r\n       \r\n\t    // ** End code here ** / \r\n    }\r\n}\r\n\r\n\r\n\r\n\r\n// PART 2 - Using Modifier to:\r\n// - Check if the action (startSession, register, bid, annoucement, getDeposit) can be done in current State.\r\n// - Check if the current user can do the action.\r\n\r\n",
  "sourcePath": "C:\\Users\\Admin\\Desktop\\MetaCoin\\contracts\\Auction.sol",
  "compiler": {
    "name": "solc",
    "version": "0.5.16+commit.9c3226ce.Emscripten.clang"
  },
  "schemaVersion": "3.4.12",
  "updatedAt": "2023-03-01T14:15:32.319Z",
  "networkType": "ethereum",
  "devdoc": {
    "methods": {}
  },
  "userdoc": {
    "methods": {}
  }
}