{
  "contractName": "Auction",
  "abi": [
    {
      "inputs": [
        {
          "internalType": "uint8",
          "name": "_startingPrice",
          "type": "uint8"
        },
        {
          "internalType": "uint8",
          "name": "_minimumStep",
          "type": "uint8"
        }
      ],
      "payable": false,
      "stateMutability": "nonpayable",
      "type": "constructor"
    },
    {
      "constant": true,
      "inputs": [],
      "name": "announcementTimes",
      "outputs": [
        {
          "internalType": "uint8",
          "name": "",
          "type": "uint8"
        }
      ],
      "payable": false,
      "stateMutability": "view",
      "type": "function"
    },
    {
      "constant": true,
      "inputs": [],
      "name": "auctioneer",
      "outputs": [
        {
          "internalType": "address",
          "name": "",
          "type": "address"
        }
      ],
      "payable": false,
      "stateMutability": "view",
      "type": "function"
    },
    {
      "constant": true,
      "inputs": [
        {
          "internalType": "address",
          "name": "",
          "type": "address"
        }
      ],
      "name": "bidders",
      "outputs": [
        {
          "internalType": "uint8",
          "name": "token",
          "type": "uint8"
        },
        {
          "internalType": "uint8",
          "name": "deposit",
          "type": "uint8"
        }
      ],
      "payable": false,
      "stateMutability": "view",
      "type": "function"
    },
    {
      "constant": true,
      "inputs": [],
      "name": "currentPrice",
      "outputs": [
        {
          "internalType": "uint8",
          "name": "",
          "type": "uint8"
        }
      ],
      "payable": false,
      "stateMutability": "view",
      "type": "function"
    },
    {
      "constant": true,
      "inputs": [],
      "name": "currentWinner",
      "outputs": [
        {
          "internalType": "address",
          "name": "",
          "type": "address"
        }
      ],
      "payable": false,
      "stateMutability": "view",
      "type": "function"
    },
    {
      "constant": true,
      "inputs": [],
      "name": "rule",
      "outputs": [
        {
          "internalType": "uint8",
          "name": "startingPrice",
          "type": "uint8"
        },
        {
          "internalType": "uint8",
          "name": "minimumStep",
          "type": "uint8"
        }
      ],
      "payable": false,
      "stateMutability": "view",
      "type": "function"
    },
    {
      "constant": true,
      "inputs": [],
      "name": "state",
      "outputs": [
        {
          "internalType": "enum Auction.State",
          "name": "",
          "type": "uint8"
        }
      ],
      "payable": false,
      "stateMutability": "view",
      "type": "function"
    },
    {
      "constant": false,
      "inputs": [
        {
          "internalType": "address",
          "name": "_account",
          "type": "address"
        },
        {
          "internalType": "uint8",
          "name": "_token",
          "type": "uint8"
        }
      ],
      "name": "register",
      "outputs": [],
      "payable": false,
      "stateMutability": "nonpayable",
      "type": "function"
    },
    {
      "constant": false,
      "inputs": [],
      "name": "startSession",
      "outputs": [],
      "payable": false,
      "stateMutability": "nonpayable",
      "type": "function"
    },
    {
      "constant": false,
      "inputs": [
        {
          "internalType": "uint8",
          "name": "_price",
          "type": "uint8"
        }
      ],
      "name": "bid",
      "outputs": [],
      "payable": false,
      "stateMutability": "nonpayable",
      "type": "function"
    },
    {
      "constant": true,
      "inputs": [],
      "name": "checkTotalDeposit",
      "outputs": [
        {
          "internalType": "uint16",
          "name": "",
          "type": "uint16"
        }
      ],
      "payable": false,
      "stateMutability": "view",
      "type": "function"
    },
    {
      "constant": false,
      "inputs": [],
      "name": "announce",
      "outputs": [],
      "payable": false,
      "stateMutability": "nonpayable",
      "type": "function"
    },
    {
      "constant": false,
      "inputs": [],
      "name": "getDeposit",
      "outputs": [],
      "payable": false,
      "stateMutability": "nonpayable",
      "type": "function"
    }
  ],
  "bytecode": "0x608060405260008060006101000a81548160ff0219169083600381111561002257fe5b021790555060008060016101000a81548160ff021916908360ff16021790555060008060026101000a81548160ff021916908360ff1602179055506000600360146101000a81548161ffff021916908361ffff16021790555034801561008757600080fd5b50604051610f4e380380610f4e833981810160405260408110156100aa57600080fd5b81019080805190602001909291908051906020019092919050505033600360006101000a81548173ffffffffffffffffffffffffffffffffffffffff021916908373ffffffffffffffffffffffffffffffffffffffff16021790555081600160000160006101000a81548160ff021916908360ff16021790555080600160000160016101000a81548160ff021916908360ff160217905550600160000160009054906101000a900460ff16600060026101000a81548160ff021916908360ff1602179055505050610dce806101806000396000f3fe608060405234801561001057600080fd5b50600436106100cf5760003560e01c80639d1b464a1161008c578063c399ec8811610066578063c399ec881461029b578063e4f8c1b6146102a5578063fcc8f793146102c9578063fe0ae16514610334576100cf565b80639d1b464a14610201578063aabe2fe314610225578063c19d93fb1461026f576100cf565b806307e49598146100d457806325e3d5221461012557806333500e26146101565780635ec2c7bf146101875780638f970df0146101d15780638ffaf205146101db575b600080fd5b610123600480360360408110156100ea57600080fd5b81019080803573ffffffffffffffffffffffffffffffffffffffff169060200190929190803560ff16906020019092919050505061033e565b005b61012d6104df565b604051808360ff1660ff1681526020018260ff1660ff1681526020019250505060405180910390f35b6101856004803603602081101561016c57600080fd5b81019080803560ff16906020019092919050505061050b565b005b61018f61079d565b604051808273ffffffffffffffffffffffffffffffffffffffff1673ffffffffffffffffffffffffffffffffffffffff16815260200191505060405180910390f35b6101d96107c3565b005b6101e3610890565b604051808261ffff1661ffff16815260200191505060405180910390f35b6102096108a8565b604051808260ff1660ff16815260200191505060405180910390f35b61022d6108bb565b604051808273ffffffffffffffffffffffffffffffffffffffff1673ffffffffffffffffffffffffffffffffffffffff16815260200191505060405180910390f35b6102776108e1565b6040518082600381111561028757fe5b60ff16815260200191505060405180910390f35b6102a36108f3565b005b6102ad610c84565b604051808260ff1660ff16815260200191505060405180910390f35b61030b600480360360208110156102df57600080fd5b81019080803573ffffffffffffffffffffffffffffffffffffffff169060200190929190505050610c97565b604051808360ff1660ff1681526020018260ff1660ff1681526020019250505060405180910390f35b61033c610cd5565b005b600360009054906101000a900473ffffffffffffffffffffffffffffffffffffffff1673ffffffffffffffffffffffffffffffffffffffff163373ffffffffffffffffffffffffffffffffffffffff161461039857600080fd5b600060038111156103a557fe5b6000809054906101000a900460ff1660038111156103bf57fe5b146103c957600080fd5b600360009054906101000a900473ffffffffffffffffffffffffffffffffffffffff1673ffffffffffffffffffffffffffffffffffffffff168273ffffffffffffffffffffffffffffffffffffffff16141561042457600080fd5b80600460008473ffffffffffffffffffffffffffffffffffffffff1673ffffffffffffffffffffffffffffffffffffffff16815260200190815260200160002060000160006101000a81548160ff021916908360ff1602179055506000600460008473ffffffffffffffffffffffffffffffffffffffff1673ffffffffffffffffffffffffffffffffffffffff16815260200190815260200160002060000160016101000a81548160ff021916908360ff1602179055505050565b60018060000160009054906101000a900460ff16908060000160019054906101000a900460ff16905082565b60003390506000600460008373ffffffffffffffffffffffffffffffffffffffff1673ffffffffffffffffffffffffffffffffffffffff16815260200190815260200160002090506001600381111561056057fe5b6000809054906101000a900460ff16600381111561057a57fe5b146105d0576040517f08c379a0000000000000000000000000000000000000000000000000000000008152600401808060200182810382526024815260200180610d766024913960400191505060405180910390fd5b600060029054906101000a900460ff16600160000160019054906101000a900460ff160160ff168360ff16108061061d57508260ff168160000160009054906101000a900460ff1660ff16105b15610690576040517f08c379a00000000000000000000000000000000000000000000000000000000081526004018080602001828103825260198152602001807f546865207072696365206973206e6f74206176616961626c650000000000000081525060200191505060405180910390fd5b828160000160008282829054906101000a900460ff160392506101000a81548160ff021916908360ff160217905550828160000160018282829054906101000a900460ff160192506101000a81548160ff021916908360ff1602179055508260ff16600360148282829054906101000a900461ffff160192506101000a81548161ffff021916908361ffff16021790555082600060026101000a81548160ff021916908360ff16021790555081600260006101000a81548173ffffffffffffffffffffffffffffffffffffffff021916908373ffffffffffffffffffffffffffffffffffffffff16021790555060008060016101000a81548160ff021916908360ff160217905550505050565b600360009054906101000a900473ffffffffffffffffffffffffffffffffffffffff1681565b600360009054906101000a900473ffffffffffffffffffffffffffffffffffffffff1673ffffffffffffffffffffffffffffffffffffffff163373ffffffffffffffffffffffffffffffffffffffff161461081d57600080fd5b6000600181819054906101000a900460ff168092919060010191906101000a81548160ff021916908360ff160217905550506003600060019054906101000a900460ff1660ff16111561088e5760026000806101000a81548160ff0219169083600381111561088857fe5b02179055505b565b6000600360149054906101000a900461ffff16905090565b600060029054906101000a900460ff1681565b600260009054906101000a900473ffffffffffffffffffffffffffffffffffffffff1681565b6000809054906101000a900460ff1681565b600260009054906101000a900473ffffffffffffffffffffffffffffffffffffffff1673ffffffffffffffffffffffffffffffffffffffff163373ffffffffffffffffffffffffffffffffffffffff16141561099a576040517f08c379a0000000000000000000000000000000000000000000000000000000008152600401808060200182810382526021815260200180610d556021913960400191505060405180910390fd5b600260038111156109a757fe5b6000809054906101000a900460ff1660038111156109c157fe5b14610a34576040517f08c379a00000000000000000000000000000000000000000000000000000000081526004018080602001828103825260188152602001807f546865207374617465206973206e6f7420636c6f73696e67000000000000000081525060200191505060405180910390fd5b600460003373ffffffffffffffffffffffffffffffffffffffff1673ffffffffffffffffffffffffffffffffffffffff16815260200190815260200160002060000160019054906101000a900460ff16600460003373ffffffffffffffffffffffffffffffffffffffff1673ffffffffffffffffffffffffffffffffffffffff16815260200190815260200160002060000160008282829054906101000a900460ff160192506101000a81548160ff021916908360ff160217905550600460003373ffffffffffffffffffffffffffffffffffffffff1673ffffffffffffffffffffffffffffffffffffffff16815260200190815260200160002060000160019054906101000a900460ff1660ff16600360148282829054906101000a900461ffff160392506101000a81548161ffff021916908361ffff1602179055506000600460003373ffffffffffffffffffffffffffffffffffffffff1673ffffffffffffffffffffffffffffffffffffffff16815260200190815260200160002060000160016101000a81548160ff021916908360ff16021790555060046000600260009054906101000a900473ffffffffffffffffffffffffffffffffffffffff1673ffffffffffffffffffffffffffffffffffffffff1673ffffffffffffffffffffffffffffffffffffffff16815260200190815260200160002060000160019054906101000a900460ff1660ff16600360149054906101000a900461ffff1661ffff161415610c825760036000806101000a81548160ff02191690836003811115610c7c57fe5b02179055505b565b600060019054906101000a900460ff1681565b60046020528060005260406000206000915090508060000160009054906101000a900460ff16908060000160019054906101000a900460ff16905082565b600360009054906101000a900473ffffffffffffffffffffffffffffffffffffffff1673ffffffffffffffffffffffffffffffffffffffff163373ffffffffffffffffffffffffffffffffffffffff1614610d2f57600080fd5b60016000806101000a81548160ff02191690836003811115610d4d57fe5b021790555056fe596f75206172652057696e6e65722c20796f752063616e74207769746864726177537461746520646f6573206e6f74207374617274206f72206861732066696e6973686564a265627a7a723158207ced3758a03201fdb732c9c6587f423d75afafdc419c7a8494c4b37120c4e41a64736f6c63430005100032",
  "source": "//SPDX-License-Identifier: UNLICENSED\r\n\r\npragma solidity ^0.5.16;\r\n\r\ncontract Auction {\r\n    \r\n    // Data\r\n    \r\n    // Structure to hold details of Bidder\r\n    struct IBidder {\r\n        uint8 token;\r\n        uint8 deposit;\r\n    }\r\n    \r\n    // Structure to hold details of Rule\r\n    struct IRule {\r\n        uint8 startingPrice;\r\n        uint8 minimumStep;\r\n    }\r\n    \r\n    \r\n    // State Enum to define Auction's state\r\n    enum State { CREATED, STARTED, CLOSING, CLOSED }\r\n    \r\n    State public state = State.CREATED; // State of Auction\r\n    \r\n    uint8 public announcementTimes = 0; // Number of announcements\r\n    uint8 public currentPrice = 0; // Latest price is bid.\r\n    IRule public rule; // Rule of this session\r\n    address public currentWinner; // Current Winner, who bid the highest price.\r\n    address public auctioneer;\r\n    \r\n    uint16 private totalDeposit = 0;\r\n    \r\n    mapping(address => IBidder) public bidders; // Mapping to hold bidders' information\r\n    \r\n    constructor(uint8 _startingPrice, uint8 _minimumStep) public {\r\n        \r\n        // Task #1 - Initialize the Smart contract\r\n        // + Initialize Auctioneer with address of smart contract's owner\r\n        // + Set the starting price & minimumStep\r\n        // + Set the current price as the Starting price\r\n        \r\n        \r\n        // ** Start code here. 4 lines approximately. ** /\r\n        auctioneer = msg.sender;\r\n        rule.startingPrice = _startingPrice;\r\n        rule.minimumStep = _minimumStep;\r\n        currentPrice = rule.startingPrice;\r\n\r\n        // ** End code here. ** /\r\n    }\r\n    \r\n    modifier onlyOwner {\r\n        require(msg.sender == auctioneer);\r\n        _;\r\n    }\r\n    \r\n    // Register new Bidder\r\n    function register(address _account, uint8 _token) public onlyOwner{ \r\n        \r\n                \r\n        // Task #2 - Register the bidder\r\n        // + Initialize a Bidder with address and token are given.\r\n        // + Initialize a Bidder's deposit with 0\r\n        \r\n        // ** Start code here. 3 lines approximately. ** /\r\n        require(state == State.CREATED);\r\n        require(_account != auctioneer);\r\n        bidders[_account].token = _token;\r\n        bidders[_account].deposit = 0;\r\n              \r\n\t   // ** End code here. **/\r\n    }\r\n\r\n    \r\n    // Start the session.\r\n    function startSession() public onlyOwner{\r\n        state = State.STARTED;\r\n    }\r\n    \r\n\r\n    \r\n    function bid(uint8 _price) public {\r\n        \r\n        // Task #3 - Bid by Bidders\r\n        // + Check the price with currentPrice and minimumStep. Revert if invalid.\r\n        // + Check if the Bidder has enough token to bid. Revert if invalid.\r\n        // + Move token to Deposit.\r\n        \r\n        address bidderAddr = msg.sender;\r\n        IBidder storage currentBidder = bidders[bidderAddr];\r\n        \r\n        // ** Start code here.  ** /\r\n        require(state == State.STARTED, \"State does not start or has finished\");\r\n        if(_price < (rule.minimumStep + currentPrice) || currentBidder.token < _price)\r\n        revert(\"The price is not avaiable\");\r\n        currentBidder.token -= _price;\r\n        currentBidder.deposit += _price;\r\n\t\t// ** End code here. **/\r\n        \r\n        // Tracking deposit\r\n        totalDeposit += _price;\r\n        \r\n        // Update the price and the winner after this bid.\r\n        currentPrice = _price;\r\n        currentWinner = bidderAddr;\r\n        \r\n        // Reset the Annoucements Counter\r\n        announcementTimes = 0;\r\n    }\r\n    \r\n    //check totalDeposit\r\n    function checkTotalDeposit() public view returns(uint16) {\r\n        return totalDeposit;\r\n    }\r\n\r\n    function announce() public onlyOwner{\r\n        \r\n        // Task #4 - Handle announcement.\r\n        // + When Auctioneer annouce, increase the counter.\r\n        // + When Auctioneer annouced more than 3 times, switch session to Closing state.\r\n        \r\n        // ** Start code here.  ** /\r\n        announcementTimes++;\r\n        if(announcementTimes > 3)\r\n        state = State.CLOSING;\r\n        // ** End code here. **/\r\n    }\r\n    \r\n    function getDeposit() public {\r\n        \r\n        // Task #5 - Handle get Deposit.\r\n        // + Allow bidders (except Winner) to withdraw their deposit \r\n\t\t// + When all bidders' deposit are withdrew, close the session \r\n        \r\n        // ** Start code here.  ** /\r\n        // HINT: Remember to decrease totalDeposit.\r\n        require(msg.sender != currentWinner, \"You are Winner, you cant withdraw\");\r\n        require(state == State.CLOSING, \"The state is not closing\");\r\n        bidders[msg.sender].token += bidders[msg.sender].deposit;\r\n        totalDeposit -= bidders[msg.sender].deposit;\r\n        bidders[msg.sender].deposit = 0;\r\n        if(totalDeposit == bidders[currentWinner].deposit)\r\n\t    state = State.CLOSED;\r\n       \r\n\t    // ** End code here ** / \r\n    }\r\n}\r\n\r\n\r\n\r\n\r\n// PART 2 - Using Modifier to:\r\n// - Check if the action (startSession, register, bid, annoucement, getDeposit) can be done in current State.\r\n// - Check if the current user can do the action.\r\n\r\n",
  "sourcePath": "D:\\job\\funix\\6-BDP303x_1.1-A_VN\\asm3\\Auction\\contracts\\Auction.sol",
  "compiler": {
    "name": "solc",
    "version": "0.5.16+commit.9c3226ce.Emscripten.clang"
  },
  "schemaVersion": "3.4.12",
  "updatedAt": "2023-03-08T13:06:12.305Z",
  "devdoc": {
    "methods": {}
  },
  "userdoc": {
    "methods": {}
  }
}